:020000040000FA
:100000000C9462000C948A000C948A000C948A0070
:100010000C948A000C948A000C948A000C948A0038
:100020000C948A000C948A000C948A000C948A0028
:100030000C948A000C948A000C948A000C948A0018
:100040000C94F6020C948A000C9466030C94400302
:100050000C948A000C948A000C948A000C948A00F8
:100060000C948A000C948A000000000023002600F3
:10007000290000000000240027002A0000000000E2
:10008000250028002B0004040404040404040202D4
:100090000202020203030303030301020408102007
:1000A0004080010204081020010204081020000012
:1000B0000008000201000003040700000000000027
:1000C0000000EC0511241FBECFEFD8E0DEBFCDBF8E
:1000D00011E0A0E0B1E0E6E8FCE002C005900D927E
:1000E000A437B107D9F722E0A4E7B1E001C01D921F
:1000F000A832B207E1F710E0C2E6D0E004C02197D1
:10010000FE010E943B06C136D107C9F70E94980341
:100110000C9441060C940000833081F028F4813067
:1001200099F08230A9F008958730A9F08830C9F09D
:100130008430B1F4809180008F7D03C08091800075
:100140008F7780938000089584B58F7784BD08955C
:1001500084B58F7DFBCF8091B0008F778093B00006
:1001600008958091B0008F7DF9CF1F93CF93DF93D7
:10017000282F30E0F901E255FF4F8491F901E6564E
:10018000FF4FD491F901EA57FF4FC491CC23A9F056
:10019000162F81110E948C00EC2FF0E0EE0FFF1F54
:1001A000E458FF4FA591B4918FB7F894EC911111D9
:1001B00008C0D095DE23DC938FBFDF91CF911F91D4
:1001C0000895DE2BF8CFCF93DF9390E0FC01E65645
:1001D000FF4F24918A579F4FFC0184918823D1F0CF
:1001E00090E0880F991FFC01EE58FF4FA591B49144
:1001F000FC01E458FF4FC591D491623071F49FB770
:10020000F8943C91822F809583238C93E8812E2B48
:1002100028839FBFDF91CF9108958FB7F894EC9119
:100220002E2B2C938FBFF6CF3FB7F8948091870188
:1002300090918801A0918901B0918A0126B5A89B6F
:1002400005C02F3F19F00196A11DB11D3FBFBA2F68
:10025000A92F982F8827BC01CD01620F711D811D28
:10026000911D42E0660F771F881F991F4A95D1F7AD
:1002700008958F929F92AF92BF92CF92DF92EF92AA
:10028000FF920E9414014B015C0184EFC82EDD2413
:10029000D394E12CF12C0E941401681979098A0980
:1002A0009B09683E734081059105A8F321E0C21ABD
:1002B000D108E108F10888EE880E83E0981EA11CA1
:1002C000B11CC114D104E104F10429F7FF90EF90AF
:1002D000DF90CF90BF90AF909F908F9008952FB7F1
:1002E000F8946091830170918401809185019091CF
:1002F00086012FBF0895AF92BF92CF92DF92EF9207
:10030000FF920F931F93CF93DF936C017B018B01BF
:10031000040F151FEB015E01AE18BF08C017D1070F
:1003200059F06991D601ED91FC910190F081E02D99
:10033000C6010995892B79F7C501DF91CF911F91EE
:100340000F91FF90EF90DF90CF90BF90AF90089506
:10035000FC01538D448D252F30E0842F90E0821BCB
:10036000930B541710F0CF96089501970895FC0150
:10037000918D828D981761F0A28DAE0FBF2FB11DA8
:100380005D968C91928D9F5F9F73928F90E0089500
:100390008FEF9FEF0895FC01918D828D981731F0BA
:1003A000828DE80FF11D858D90E008958FEF9FEF0E
:1003B0000895FC01918D228D892F90E0805C9F4FE4
:1003C000821B91098F73992708958BE891E00E9411
:1003D000D90121E0892B09F420E0822F089580E0E3
:1003E00090E0892B29F00E94E50181110C94000016
:1003F0000895FC01A48DA80FB92FB11DA35ABF4FBA
:100400002C91848D90E001968F739927848FA68913
:10041000B7892C93A089B1898C91837080648C9367
:10042000938D848D981306C00288F389E02D808116
:100430008F7D80830895EF92FF920F931F93CF9348
:10044000DF93EC0181E0888F9B8D8C8D98131AC00F
:10045000E889F989808185FF15C09FB7F894EE89F6
:10046000FF896083E889F989808183708064808353
:100470009FBF81E090E0DF91CF911F910F91FF909E
:10048000EF900895F62E0B8D10E00F5F1F4F0F7346
:100490001127E02E8C8D8E110CC00FB607FCFACF01
:1004A000E889F989808185FFF5CFCE010E94F901A5
:1004B000F1CFEB8DEC0FFD2FF11DE35AFF4FF082D2
:1004C0009FB7F8940B8FEA89FB8980818062CFCF38
:1004D000CF93DF93EC01888D8823B9F0AA89BB897B
:1004E000E889F9898C9185FD03C0808186FD0DC066
:1004F0000FB607FCF7CF8C9185FFF2CF808185FF87
:10050000EDCFCE010E94F901E9CFDF91CF9108959F
:10051000FC0101900020E9F73197AF01481B590B0E
:10052000BC018BE891E00C947B018F929F92AF927B
:10053000BF920F931F93CF93DF93CDB7DEB7A197F1
:100540000FB6F894DEBF0FBECDBF19A2423008F43B
:100550004AE08E010F5D1F4F842E912CB12CA12CEF
:10056000A50194010E941906E62FB901CA01EA30DB
:10057000F4F4E05DD801EE938D01232B242B252B81
:1005800079F790E080E0109719F0CD010E94880281
:10059000A1960FB6F894DEBF0FBECDBFDF91CF910D
:1005A0001F910F91BF90AF909F908F900895E95C3D
:1005B000E1CFCF93DF930E948802EC0186E191E0C6
:1005C0000E9488028C0F9D1FDF91CF910895CF93D9
:1005D000DF934AE00E949502EC0186E191E00E94DF
:1005E00088028C0F9D1FDF91CF9108951F920F926B
:1005F0000FB60F9211242F933F938F939F93AF9336
:10060000BF938091830190918401A0918501B09165
:1006100086013091820123E0230F2D3758F5019692
:10062000A11DB11D209382018093830190938401C9
:10063000A0938501B09386018091870190918801F4
:10064000A0918901B0918A010196A11DB11D8093ED
:10065000870190938801A0938901B0938A01BF918B
:10066000AF919F918F913F912F910F900FBE0F905F
:100670001F90189526E8230F0296A11DB11DD2CF19
:100680001F920F920FB60F9211242F933F934F9307
:100690005F936F937F938F939F93AF93BF93EF93EA
:1006A000FF938BE891E00E94F901FF91EF91BF91D8
:1006B000AF919F918F917F916F915F914F913F91FA
:1006C0002F910F900FBE0F901F9018951F920F92B1
:1006D0000FB60F9211242F938F939F93EF93FF9355
:1006E000E0919B01F0919C018081E091A101F0914A
:1006F000A20182FD1BC090818091A4018F5F8F7346
:100700002091A501821741F0E091A401F0E0E557A6
:10071000FE4F958F8093A401FF91EF919F918F9150
:100720002F910F900FBE0F901F9018958081F4CFDE
:10073000789484B5826084BD84B5816084BD85B5BC
:10074000826085BD85B5816085BD80916E008160C8
:1007500080936E001092810080918100826080936E
:100760008100809181008160809381008091800070
:100770008160809380008091B10084608093B1009B
:100780008091B00081608093B00080917A00846095
:1007900080937A0080917A00826080937A008091C1
:1007A0007A00816080937A0080917A0080688093DB
:1007B0007A001092C10061E084E00E94E30061E0F1
:1007C00085E00E94E30061E088E00E94E30061E0D0
:1007D00089E00E94E30061E08AE00E94E30062E0B9
:1007E00082E00E94E300E0919B01F0919C0182E095
:1007F0008083E0919701F09198011082E091990136
:10080000F0919A018FEC80831092A301E0919F01F7
:10081000F091A00186E08083E0919D01F0919E011E
:10082000808180618083E0919D01F0919E018081B3
:1008300088608083E0919D01F0919E0180818068B5
:100840008083E0919D01F0919E0180818F7D808366
:1008500020EB222E20E0322E3CE9432E30E0532EB6
:1008600048E8642E40E0742E01E010E053E0C52E0D
:10087000D12C64E0E62EF12C72E0A72EB12C90E092
:10088000892E90E0992EF1018491F201C491F30137
:10089000D491DD2309F476C081110E948C00ED2FE4
:1008A000F0E0EE0FFF1FE859FF4FA591B4918C9136
:1008B000C82391E080E009F490E0C92FD82F89E1A6
:1008C00091E00E9488024AE0BE010D2E000C880BC8
:1008D000990B0E94950286E191E00E948802809126
:1008E0008001909181018C179D0751F00E946F014A
:1008F00060937C0170937D0180937E0190937F01D2
:100900000E946F0120917C0130917D0140917E0118
:1009100050917F01621B730B840B950B6333710540
:100920008105910558F080917A0190917B01C8175B
:10093000D90721F0D0937B01C0937A01D093810134
:10094000C093800180917A0190917B010097E9F436
:100950008091020190910301019721F4109203010B
:100960001092020180917801909179018230910575
:1009700009F48BC0E4F40197C9F110937901009355
:10098000780178C0D0E0C0E09ACF8130910551F76E
:100990002091020130910301232B21F79093030151
:1009A000809302011092010110920001DBCF83308D
:1009B000910509F4BAC0049701F760E089E00E944C
:1009C000B500C3E0D0E061E089E00E94B5000E947C
:1009D000390160E089E00E94B5000E943901219749
:1009E00091F786E691E00E94D902C7CF61E088E0E6
:1009F0000E94B50060E089E00E94B50060E08AE0F6
:100A00000E94B50060E084E00E94B50061E085E0EE
:100A10000E94B50088E291E00E94D90286E391E04D
:100A20000E9488020E946F0120917401309175012B
:100A30004091760150917701621B730B840B950BEB
:100A40000E94E7020E946F012091740130917501AC
:100A50004091760150917701621B730B840B950BCB
:100A6000613177428105910508F4A6C0B092790101
:100A7000A09278010E946F016093740170937501D8
:100A8000809376019093770197C060E088E00E94A0
:100A9000B50061E089E00E94B50060E08AE00E9454
:100AA000B50060E084E00E94B50060E085E00E944F
:100AB000B5008AE491E00E94D90286E391E00E94A9
:100AC00088020E946F01209174013091750140915C
:100AD000760150917701621B730B840B950B0E947A
:100AE000E7028091000190910101892B29F4F09295
:100AF0007901E0927801BECF0E946F0120917401CC
:100B0000309175014091760150917701621B730B12
:100B1000840B950B6D3D75408105910508F44CC023
:100B2000D0927901C0927801A5CF60E088E00E9460
:100B3000B50060E089E00E94B50061E08AE00E94B3
:100B4000B50061E084E00E94B50060E085E00E94AD
:100B5000B50088E591E00E94D90286E391E00E9409
:100B600088020E946F0120917401309175014091BB
:100B7000760150917701621B730B840B950B0E94D9
:100B8000E7028091000190910101892B09F4AFCF18
:100B90000E946F012091740130917501409176019E
:100BA00050917701621B730B840B950B61347F416D
:100BB0008105910508F0E1CE109301010093000139
:100BC0008114910409F45FCE0E94E501882309F4A1
:100BD00056CE0E94000053CEEBE8F1E01382128261
:100BE00088EE93E0A0E0B0E084839583A683B7838A
:100BF00088E091E09183808385EC90E095878487FD
:100C000084EC90E09787868780EC90E0918B808BD6
:100C100081EC90E0938B828B82EC90E0958B848BBF
:100C200086EC90E0978B868B118E128E138E148E2D
:100C30000895A1E21A2EAA1BBB1BFD010DC0AA1F1D
:100C4000BB1FEE1FFF1FA217B307E407F50720F035
:100C5000A21BB30BE40BF50B661F771F881F991FB0
:100C60001A9469F760957095809590959B01AC01F9
:100C7000BD01CF010895EE0FFF1F0590F491E02D07
:100C80000994F894FFCF01000100000000001B024E
:100C90007B01A8016802D901B701CB010D0A004E02
:100CA000696C616920746F6D626F6C3A20004D61F0
:100CB00073756B2073746174652031004E696C61CB
:100CC000692077616B74752073746174653A2000D4
:100CD0004D6173756B2073746174652032004D61D2
:100CE00073756B2073746174652033004D61737587
:0A0CF0006B207374617465203400FA
:107E0000112484B714BE81FFF0D085E080938100F7
:107E100082E08093C00088E18093C10086E0809377
:107E2000C20080E18093C4008EE0C9D0259A86E02C
:107E300020E33CEF91E0309385002093840096BBD3
:107E4000B09BFECF1D9AA8958150A9F7CC24DD24C4
:107E500088248394B5E0AB2EA1E19A2EF3E0BF2EE7
:107E6000A2D0813461F49FD0082FAFD0023811F036
:107E7000013811F484E001C083E08DD089C08234E0
:107E800011F484E103C0853419F485E0A6D080C0E4
:107E9000853579F488D0E82EFF2485D0082F10E0AE
:107EA000102F00270E291F29000F111F8ED06801E7
:107EB0006FC0863521F484E090D080E0DECF843638
:107EC00009F040C070D06FD0082F6DD080E0C81688
:107ED00080E7D80618F4F601B7BEE895C0E0D1E017
:107EE00062D089930C17E1F7F0E0CF16F0E7DF06D8
:107EF00018F0F601B7BEE89568D007B600FCFDCFD4
:107F0000A601A0E0B1E02C9130E011968C91119780
:107F100090E0982F8827822B932B1296FA010C0160
:107F200087BEE89511244E5F5F4FF1E0A038BF0790
:107F300051F7F601A7BEE89507B600FCFDCF97BE46
:107F4000E89526C08437B1F42ED02DD0F82E2BD052
:107F50003CD0F601EF2C8F010F5F1F4F84911BD097
:107F6000EA94F801C1F70894C11CD11CFA94CF0C13
:107F7000D11C0EC0853739F428D08EE10CD085E9AC
:107F80000AD08FE07ACF813511F488E018D01DD067
:107F900080E101D065CF982F8091C00085FFFCCF94
:107FA0009093C60008958091C00087FFFCCF809118
:107FB000C00084FD01C0A8958091C6000895E0E648
:107FC000F0E098E1908380830895EDDF803219F02E
:107FD00088E0F5DFFFCF84E1DECF1F93182FE3DFCA
:107FE0001150E9F7F2DF1F91089580E0E8DFEE27F6
:047FF000FF270994CA
:027FFE00040479
:00000001FF
