:020000040000FA
:100000000C9462000C948A000C948A000C948A0070
:100010000C948A000C948A000C948A000C948A0038
:100020000C948A000C948A000C948A000C948A0028
:100030000C948A000C948A000C948A000C948A0018
:100040000C943C020C948A000C94AC020C94860232
:100050000C948A000C948A000C948A000C948A00F8
:100060000C948A000C948A000000000023002600F3
:10007000290000000000240027002A0000000000E2
:10008000250028002B0004040404040404040202D4
:100090000202020203030303030301020408102007
:1000A0004080010204081020010204081020000012
:1000B0000008000201000003040700000000000027
:1000C0000000B00411241FBECFEFD8E0DEBFCDBFCB
:1000D00011E0A0E0B1E0EAECF9E002C005900D9279
:1000E000A836B107D9F722E0A8E6B1E001C01D9219
:1000F000A631B207E1F710E0C2E6D0E004C02197D4
:10010000FE010E94DD04C136D107C9F70E94DE025C
:100110000C94E3040C940000833081F028F48130C7
:1001200099F08230A9F008958730A9F08830C9F09D
:100130008430B1F4809180008F7D03C08091800075
:100140008F7780938000089584B58F7784BD08955C
:1001500084B58F7DFBCF8091B0008F778093B00006
:1001600008958091B0008F7DF9CF1F93CF93DF93D7
:10017000282F30E0F901E255FF4F8491F901E6564E
:10018000FF4FD491F901EA57FF4FC491CC23A9F056
:10019000162F81110E948C00EC2FF0E0EE0FFF1F54
:1001A000E458FF4FA591B4918FB7F894EC911111D9
:1001B00008C0D095DE23DC938FBFDF91CF911F91D4
:1001C0000895DE2BF8CFCF93DF9390E0FC01E65645
:1001D000FF4F24918A579F4FFC0184918823D1F0CF
:1001E00090E0880F991FFC01EE58FF4FA591B49144
:1001F000FC01E458FF4FC591D491623071F49FB770
:10020000F8943C91822F809583238C93E8812E2B48
:1002100028839FBFDF91CF9108958FB7F894EC9119
:100220002E2B2C938FBFF6CFAF92BF92CF92DF923F
:10023000EF92FF920F931F93CF93DF936C017B019B
:100240008B01040F151FEB015E01AE18BF08C0172C
:10025000D10759F06991D601ED91FC910190F0819F
:10026000E02DC6010995892B79F7C501DF91CF9162
:100270001F910F91FF90EF90DF90CF90BF90AF90C4
:100280000895FC01538D448D252F30E0842F90E09C
:10029000821B930B541710F0CF9608950197089581
:1002A000FC01918D828D981761F0A28DAE0FBF2F4A
:1002B000B11D5D968C91928D9F5F9F73928F90E0A0
:1002C00008958FEF9FEF0895FC01918D828D98170F
:1002D00031F0828DE80FF11D858D90E008958FEF4C
:1002E0009FEF0895FC01918D228D892F90E0805C15
:1002F0009F4F821B91098F739927089589E791E099
:100300000E94720121E0892B09F420E0822F0895D8
:1003100080E090E0892B29F00E947E0181110C94ED
:1003200000000895FC01A48DA80FB92FB11DA35A98
:10033000BF4F2C91848D90E001968F739927848F05
:10034000A689B7892C93A089B1898C918370806428
:100350008C93938D848D981306C00288F389E02DC9
:1003600080818F7D80830895EF92FF920F931F937A
:10037000CF93DF93EC0181E0888F9B8D8C8D981358
:100380001AC0E889F989808185FF15C09FB7F89464
:10039000EE89FF896083E889F989808183708064B0
:1003A00080839FBF81E090E0DF91CF911F910F91FB
:1003B000FF90EF900895F62E0B8D10E00F5F1F4F0A
:1003C0000F731127E02E8C8D8E110CC00FB607FC19
:1003D000FACFE889F989808185FFF5CFCE010E94A7
:1003E0009201F1CFEB8DEC0FFD2FF11DE35AFF4F82
:1003F000F0829FB7F8940B8FEA89FB898081806235
:10040000CFCFCF93DF93EC01888D8823B9F0AA89F1
:10041000BB89E889F9898C9185FD03C0808186FDBF
:100420000DC00FB607FCF7CF8C9185FFF2CF80810E
:1004300085FFEDCFCE010E949201E9CFDF91CF91F0
:100440000895FC0101900020E9F73197AF01481BA6
:10045000590BBC0189E791E00C941401CF93DF9311
:100460000E942102EC0188E191E00E9421028C0FA0
:100470009D1FDF91CF9108951F920F920FB60F929B
:1004800011242F933F938F939F93AF93BF938091AA
:10049000750190917601A0917701B091780130912A
:1004A000740123E0230F2D3758F50196A11DB11DCE
:1004B000209374018093750190937601A093770146
:1004C000B09378018091700190917101A0917201B7
:1004D000B09173010196A11DB11D8093700190939D
:1004E0007101A0937201B0937301BF91AF919F917D
:1004F0008F913F912F910F900FBE0F901F901895E5
:1005000026E8230F0296A11DB11DD2CF1F920F9294
:100510000FB60F9211242F933F934F935F936F93D6
:100520007F938F939F93AF93BF93EF93FF9389E74D
:1005300091E00E949201FF91EF91BF91AF919F9145
:100540008F917F916F915F914F913F912F910F907C
:100550000FBE0F901F9018951F920F920FB60F921B
:1005600011242F938F939F93EF93FF93E091890131
:10057000F0918A018081E0918F01F091900182FDDC
:100580001BC09081809192018F5F8F7320919301A6
:10059000821741F0E0919201F0E0E758FE4F958F0D
:1005A00080939201FF91EF919F918F912F910F90E6
:1005B0000FBE0F901F9018958081F4CFCF93DF93DB
:1005C000CDB7DEB7A1970FB6F894DEBF0FBECDBF93
:1005D000789484B5826084BD84B5816084BD85B51E
:1005E000826085BD85B5816085BD80916E0081602A
:1005F00080936E00109281008091810082608093D0
:1006000081008091810081608093810080918000D1
:100610008160809380008091B10084608093B100FC
:100620008091B00081608093B00080917A008460F6
:1006300080937A0080917A00826080937A00809122
:100640007A00816080937A0080917A00806880933C
:100650007A001092C10061E08DE00E94E30061E049
:100660008CE00E94E30061E08BE00E94E30062E026
:1006700082E00E94E300E0918901F0918A0182E02A
:100680008083E0918501F09186011082E0918701DD
:10069000F09188018FEC808310929101E0918D019F
:1006A000F0918E0186E08083E0918B01F0918C01C6
:1006B000808180618083E0918B01F0918C01808149
:1006C00088608083E0918B01F0918C01808180684B
:1006D0008083E0918B01F0918C0180818F7D8083FC
:1006E0003CE9232E30E0332EEE24E394F12C53E04A
:1006F000652E712C64E0C62ED12C72E0A72EB12C91
:1007000098E8492E90E0592E20E0822E20E0922E8B
:10071000E0EBF0E08491F1010491F20114911123D6
:1007200009F493C081110E948C00E12FF0E0EE0FDC
:10073000FF1FE859FF4FA591B4918C91082391E0D8
:1007400080E009F490E0092F182F8BE191E00E94DE
:10075000210219A280E3800F88A3CE0180960E9417
:10076000210288E191E00E94210280916E01909126
:100770006F018017910799F02FB7F8948091750158
:1007800090917601A0917701B09178012FBF80936D
:100790006A0190936B01A0936C01B0936D012FB728
:1007A000F8948091750190917601A0917701B091B4
:1007B00078012FBF40916A0150916B0160916C01EB
:1007C00070916D01841B950BA60BB70BC397A10508
:1007D000B10558F0809168019091690180179107E7
:1007E00021F0109369010093680110936F01009349
:1007F0006E018091680190916901009749F580919F
:10080000040190910501019721F4109205011092C5
:10081000040180910001909101018230910509F459
:1008200067C044F5019709F447C0F0920301E092D4
:1008300002018114910409F46BCF0E947E01882388
:1008400009F45ECF0E9400005BCF10E000E07DCF96
:1008500081309105F1F62091040130910501232B9F
:10086000C1F6909305018093040110920301109248
:100870000201CFCF8330910509F456C00497A9F641
:1008800060E08DE00E94B50060E08CE00E94B50061
:1008900061E08BE00E94B50089E591E00E942E02A4
:1008A0008091020190910301892B09F0BECFF09253
:1008B0000101E0920001B9CF61E08DE00E94B50036
:1008C00061E08CE00E94B50061E08BE00E94B50021
:1008D0008FE291E00E942E0280910201909103012B
:1008E000892B09F0A2CFB0920101A09200019DCF07
:1008F00061E08DE00E94B50060E08CE00E94B500F0
:1009000060E08BE00E94B5008DE391E00E942E0232
:100910008091020190910301892B09F086CF70929A
:1009200001016092000181CF60E08DE00E94B5007E
:1009300061E08CE00E94B50060E08BE00E94B500B1
:100940008BE491E00E942E028091020190910301BC
:10095000892B09F06ACFD0920101C092000165CFC6
:10096000E9E7F1E01382128288EE93E0A0E0B0E0C4
:1009700084839583A683B7838AE091E09183808303
:1009800085EC90E09587848784EC90E09787868754
:1009900080EC90E0918B808B81EC90E0938B828B4C
:1009A00082EC90E0958B848B86EC90E0978B868B25
:1009B000118E128E138E148E0895EE0FFF1F059068
:1009C000F491E02D0994F894FFCF0100010001009B
:1009D00000000000B4011401410101027201500144
:1009E00064010D0A004E696C616920766172206BAA
:1009F0006F6E646973693A20004D6173756B207383
:100A0000746174652031004D6173756B207374617E
:100A100074652032004D6173756B20737461746569
:100A20002033004D6173756B2073746174652034DD
:020A30000000C4
:107E0000112484B714BE81FFF0D085E080938100F7
:107E100082E08093C00088E18093C10086E0809377
:107E2000C20080E18093C4008EE0C9D0259A86E02C
:107E300020E33CEF91E0309385002093840096BBD3
:107E4000B09BFECF1D9AA8958150A9F7CC24DD24C4
:107E500088248394B5E0AB2EA1E19A2EF3E0BF2EE7
:107E6000A2D0813461F49FD0082FAFD0023811F036
:107E7000013811F484E001C083E08DD089C08234E0
:107E800011F484E103C0853419F485E0A6D080C0E4
:107E9000853579F488D0E82EFF2485D0082F10E0AE
:107EA000102F00270E291F29000F111F8ED06801E7
:107EB0006FC0863521F484E090D080E0DECF843638
:107EC00009F040C070D06FD0082F6DD080E0C81688
:107ED00080E7D80618F4F601B7BEE895C0E0D1E017
:107EE00062D089930C17E1F7F0E0CF16F0E7DF06D8
:107EF00018F0F601B7BEE89568D007B600FCFDCFD4
:107F0000A601A0E0B1E02C9130E011968C91119780
:107F100090E0982F8827822B932B1296FA010C0160
:107F200087BEE89511244E5F5F4FF1E0A038BF0790
:107F300051F7F601A7BEE89507B600FCFDCF97BE46
:107F4000E89526C08437B1F42ED02DD0F82E2BD052
:107F50003CD0F601EF2C8F010F5F1F4F84911BD097
:107F6000EA94F801C1F70894C11CD11CFA94CF0C13
:107F7000D11C0EC0853739F428D08EE10CD085E9AC
:107F80000AD08FE07ACF813511F488E018D01DD067
:107F900080E101D065CF982F8091C00085FFFCCF94
:107FA0009093C60008958091C00087FFFCCF809118
:107FB000C00084FD01C0A8958091C6000895E0E648
:107FC000F0E098E1908380830895EDDF803219F02E
:107FD00088E0F5DFFFCF84E1DECF1F93182FE3DFCA
:107FE0001150E9F7F2DF1F91089580E0E8DFEE27F6
:047FF000FF270994CA
:027FFE00040479
:00000001FF
