:100000000C945D000C9485000C9485000C94850084
:100010000C9485000C9485000C9485000C9485004C
:100020000C9485000C9485000C9485000C9485003C
:100030000C9485000C9485000C9485000C9485002C
:100040000C94A6030C9485000C9416040C94F003F5
:100050000C9485000C9485000C9485000C9485000C
:100060000C9485000C94850000000008000201003B
:100070000003040700000000000000000000000072
:10008000250028002B0000000000240027002A0083
:10009000040404040404040402020202020203032E
:1000A0000303030301020408102040800102040836
:1000B0001020010204081020300511241FBECFEFCC
:1000C000D8E0DEBFCDBF11E0A0E0B1E0EEE0FBE0A4
:1000D00002C005900D92A232B107D9F721E0A2E249
:1000E000B1E001C01D92AA3CB207E1F710E0CDE5F6
:1000F000D0E004C02197FE010E947F05CC35D107D6
:10010000C9F70E9448040C9485050C94000090E007
:10011000FC01EC55FF4F249180579F4FFC018491C7
:10012000882399F090E0880F991FFC01EA57FF4F50
:10013000A591B491FC01E458FF4F859194918FB73C
:10014000F894EC91E22BEC938FBF089582E48093B6
:100150007C0080917A00806480937A0080917A009C
:1001600086FDFCCF8091780090917900089590E011
:10017000FC01E859FF4F2491FC01EC55FF4F3491ED
:10018000FC01E057FF4FE491EE23C9F0222339F040
:10019000233001F1A8F4213019F1223029F1F0E0E7
:1001A000EE0FFF1FE458FF4FA591B4918FB7F8945D
:1001B000EC91611126C030953E233C938FBF08958A
:1001C0002730A9F02830C9F0243049F78091800009
:1001D0008F7D03C0809180008F7780938000DFCF78
:1001E00084B58F7784BDDBCF84B58F7DFBCF8091C5
:1001F000B0008F778093B000D2CF8091B0008F7D18
:10020000F9CF3E2BDACF1F93CF93DF93182FEB015B
:100210000E948700209739F460E0812FDF91CF9111
:100220001F910C94B700CF3FD10511F461E0F5CFD9
:10023000E12FF0E0E859FF4FE491E33031F140F471
:10024000E130B1F0E230E1F0C038D1057CF7E4CF25
:10025000E73029F1E83059F1E430B1F780918000BE
:10026000806280938000D0938B00C0938A0004C08A
:1002700084B5806884BDC7BDDF91CF911F9108957B
:1002800084B5806284BDC8BDF7CF8091800080684E
:1002900080938000D0938900C0938800EDCF809137
:1002A000B00080688093B000C093B300E5CF809128
:1002B000B00080628093B000C093B400DDCF3FB740
:1002C000F8948091290190912A01A0912B01B0917D
:1002D0002C0126B5A89B05C02F3F19F00196A11D42
:1002E000B11D3FBFBA2FA92F982F8827BC01CD0180
:1002F000620F711D811D911D42E0660F771F881FDF
:10030000991F4A95D1F708958F929F92AF92BF920D
:10031000CF92DF92EF92FF924B015C010E945F014E
:100320006B017C010E945F016C197D098E099F0998
:10033000683E734081059105A8F321E0821A910877
:10034000A108B10888EEC80E83E0D81EE11CF11C9C
:1003500081149104A104B10429F7FF90EF90DF907C
:10036000CF90BF90AF909F908F900895AF92BF9223
:10037000CF92DF92EF92FF920F931F93CF93DF9371
:100380006C017B018B01040F151FEB015E01AE18A0
:10039000BF08C017D10759F06991D601ED91FC91C2
:1003A0000190F081E02DC6010995892B79F7C501EF
:1003B000DF91CF911F910F91FF90EF90DF90CF9041
:1003C000BF90AF900895FC01538D448D252F30E0F0
:1003D000842F90E0821B930B541710F0CF96089552
:1003E00001970895FC01918D828D981761F0A28D7F
:1003F000AE0FBF2FB11D5D968C91928D9F5F9F7345
:10040000928F90E008958FEF9FEF0895FC01918DFA
:10041000828D981731F0828DE80FF11D858D90E067
:1004200008958FEF9FEF0895FC01918D228D892F04
:1004300090E0805C9F4F821B91098F7399270895EC
:100440008DE291E00E94140221E0892B09F420E062
:10045000822F089580E090E0892B29F00E942002ED
:1004600081110C9400000895FC01A48DA80FB92FF0
:10047000B11DA35ABF4F2C91848D90E001968F73CC
:100480009927848FA689B7892C93A089B1898C91EB
:10049000837080648C93938D848D981306C002883A
:1004A000F389E02D80818F7D80830895EF92FF9204
:1004B0000F931F93CF93DF93EC0181E0888F9B8D87
:1004C0008C8D98131AC0E889F989808185FF15C041
:1004D0009FB7F894EE89FF896083E889F989808164
:1004E0008370806480839FBF81E090E0DF91CF9133
:1004F0001F910F91FF90EF900895F62E0B8D10E055
:100500000F5F1F4F0F731127E02E8C8D8E110CC0C3
:100510000FB607FCFACFE889F989808185FFF5CF0E
:10052000CE010E943402F1CFEB8DEC0FFD2FF11DB7
:10053000E35AFF4FF0829FB7F8940B8FEA89FB894B
:1005400080818062CFCFCF93DF93EC01888D8823A9
:10055000B9F0AA89BB89E889F9898C9185FD03C026
:10056000808186FD0DC00FB607FCF7CF8C9185FF0B
:10057000F2CF808185FFEDCFCE010E943402E9CF1A
:10058000DF91CF9108958F929F92AF92BF920F9378
:100590001F93CF93DF93CDB7DEB7A1970FB6F89433
:1005A000DEBF0FBECDBF19A2423008F44AE08E0173
:1005B0000F5D1F4F842E912CB12CA12CA50194010D
:1005C0000E945D05E62FB901CA01EA3044F5E05DFD
:1005D000D801EE938D01232B242B252B79F790E066
:1005E00080E0109769F0FD0101900020E9F7319754
:1005F000AF014A1B5B0BBD018DE291E00E94B60189
:10060000A1960FB6F894DEBF0FBECDBFDF91CF919C
:100610001F910F91BF90AF909F908F900895E95CCC
:10062000D7CFCF92DF92EF92FF92CF93DF936C01FF
:10063000990FEE08FF08F7FE23C06DE28DE291E00E
:100640000E945602EC0166277727CB016C197D09C1
:100650008E099F094AE00E94C302C80FD91F42E0D9
:1006600050E06EE171E08DE291E00E94B6018C0FE6
:100670009D1FDF91CF91FF90EF90DF90CF90089575
:100680004AE0C701B6010E94C302EC01E8CFCF9354
:10069000DF93EC010E94A600909323018093220136
:1006A0000E941103CC0FDD1FCE5EDE4FC88161E0DA
:1006B0008C2F0E94B70068EE73E080E090E00E940B
:1006C000840160E08C2F0E94B70068EE73E080E048
:1006D00090E0DF91CF910C948401FF920F931F93D0
:1006E000CF93DF93EC010E94A600909323018093A7
:1006F00022010E94110310E000E0CC0FDD1FCE5E4E
:10070000DE4FF880B8018F2D0E94030165E070E094
:1007100080E090E00E9484010F5F1F4F011581E08F
:10072000180781F7CFEFD0E0BE018F2D0E940301A3
:1007300065E070E080E090E00E9484012197A0F7DE
:10074000DF91CF911F910F91FF9008951F920F920B
:100750000FB60F9211242F933F938F939F93AF93D4
:10076000BF938091250190912601A0912701B0911E
:1007700028013091240123E0230F2D3758F50196ED
:10078000A11DB11D20932401809325019093260182
:10079000A0932701B09328018091290190912A010B
:1007A000A0912B01B0912C010196A11DB11D809348
:1007B000290190932A01A0932B01B0932C01BF91A2
:1007C000AF919F918F913F912F910F900FBE0F90FE
:1007D0001F90189526E8230F0296A11DB11DD2CFB8
:1007E0001F920F920FB60F9211242F933F934F93A6
:1007F0005F936F937F938F939F93AF93BF93EF9389
:10080000FF938DE291E00E943402FF91EF91BF913E
:10081000AF919F918F917F916F915F914F913F9198
:100820002F910F900FBE0F901F9018951F920F924F
:100830000FB60F9211242F938F939F93EF93FF93F3
:10084000E0913D01F0913E018081E0914301F09102
:10085000440182FD1BC09081809146018F5F8F73A0
:1008600020914701821741F0E0914601F0E0E35DFD
:10087000FE4F958F80934601FF91EF919F918F914D
:100880002F910F900FBE0F901F9018958081F4CF7D
:10089000789484B5826084BD84B5816084BD85B55B
:1008A000826085BD85B5816085BD80916E00816067
:1008B00080936E001092810080918100826080930D
:1008C000810080918100816080938100809180000F
:1008D0008160809380008091B10084608093B1003A
:1008E0008091B00081608093B00080917A00846034
:1008F00080937A0080917A00826080937A00809160
:100900007A00816080937A0080917A008068809379
:100910007A001092C100E0913D01F0913E0182E029
:100920008083E0913901F0913A011082E0913B011E
:10093000F0913C018FEC808310924501E0914101E0
:10094000F091420186E08083E0913F01F091400107
:10095000808180618083E0913F01F091400180813E
:1009600088608083E0913F01F09140018081806840
:100970008083E0913F01F091400180818F7D8083F1
:1009800083E00E94870085E00E94870086E00E9445
:10099000870089E00E9487008AE00E9487008BE040
:1009A0000E94870000E010E00E94A60090932301BF
:1009B000809322010E9411038091220190912301D2
:1009C000811522E0920744F5D0E0C0E0CE010E94FC
:1009D0006D0380912201909123018130924024F493
:1009E0002196C330D10591F7C2E0D0E0CE010E943C
:1009F0006D0380912201909123018130924014F483
:100A00002197A0F70115110579F20E942002882391
:100A100059F20E940000C8CF8115924099F3C3E0BB
:100A2000D0E0CE010E9447038091220190912301E2
:100A30008115924024F02196C630D10591F7C5E08A
:100A4000D0E0CE010E9447038091220190912301C2
:100A500081159240BCF22197C230D10591F7D2CFD7
:100A6000EDE2F1E01382128288EE93E0A0E0B0E0C4
:100A700084839583A683B78384E091E09183808308
:100A800085EC90E09587848784EC90E09787868753
:100A900080EC90E0918B808B81EC90E0938B828B4B
:100AA00082EC90E0958B848B86EC90E0978B868B24
:100AB000118E128E138E148E0895A1E21A2EAA1B87
:100AC000BB1BFD010DC0AA1FBB1FEE1FFF1FA217FE
:100AD000B307E407F50720F0A21BB30BE40BF50BFB
:100AE000661F771F881F991F1A9469F76095709584
:100AF000809590959B01AC01BD01CF010895EE0F4B
:0E0B0000FF1F0590F491E02D0994F894FFCFAB
:100B0E00000000005602B601E301A3021402F20136
:100B1E00060203000500060009000A000B000D0A7C
:020B2E000000C5
:00000001FF
