:020000040000FA
:100000000C9461000C947E000C947E000C947E0095
:100010000C947E000C947E000C947E000C947E0068
:100020000C947E000C947E000C947E000C947E0058
:100030000C947E000C947E000C947E000C947E0048
:100040000C9408010C947E000C947E000C947E00AD
:100050000C947E000C947E000C947E000C947E0028
:100060000C947E000C947E0000000000230026000B
:10007000290000000000240027002A0000000000E2
:10008000250028002B0004040404040404040202D4
:100090000202020203030303030301020408102007
:1000A0004080010204081020010204081020000012
:1000B0000008000201000003040700000000000027
:1000C000000011241FBECFEFD8E0DEBFCDBF11E08E
:1000D000A0E0B1E0E6EDF4E002C005900D92A6309C
:1000E000B107D9F721E0A6E0B1E001C01D92AF3021
:1000F000B207E1F70E9452010C9469020C940000CF
:10010000833081F028F4813099F08230A9F008958D
:100110008730A9F08830C9F08430B1F48091800034
:100120008F7D03C0809180008F7780938000089539
:1001300084B58F7784BD089584B58F7DFBCF809182
:10014000B0008F778093B00008958091B0008F7DCC
:10015000F9CF1F93CF93DF93282F30E0F901E255B9
:10016000FF4F8491F901E656FF4FD491F901EA5708
:10017000FF4FC491CC23A9F0162F81110E9480005B
:10018000EC2FF0E0EE0FFF1FE458FF4FA591B49164
:100190008FB7F894EC91111108C0D095DE23DC9351
:1001A0008FBFDF91CF911F910895DE2BF8CFCF93B2
:1001B000DF9390E0FC01E656FF4F24918A579F4F52
:1001C000FC0184918823D1F090E0880F991FFC01F5
:1001D000EE58FF4FA591B491FC01E458FF4FC59133
:1001E000D491623071F49FB7F8943C91822F80953E
:1001F00083238C93E8812E2B28839FBFDF91CF919F
:1002000008958FB7F894EC912E2B2C938FBFF6CFD7
:100210001F920F920FB60F9211242F933F938F933B
:100220009F93AF93BF9380910B0190910C01A0918C
:100230000D01B0910E0130910A0123E0230F2D37FB
:1002400058F50196A11DB11D20930A0180930B0161
:1002500090930C01A0930D01B0930E0180910601C3
:1002600090910701A0910801B09109010196A11D8B
:10027000B11D8093060190930701A0930801B093EC
:100280000901BF91AF919F918F913F912F910F9055
:100290000FBE0F901F90189526E8230F0296A11D00
:1002A000B11DD2CF789484B5826084BD84B581605D
:1002B00084BD85B5826085BD85B5816085BD809131
:1002C0006E00816080936E001092810080918100A9
:1002D00082608093810080918100816080938100A1
:1002E000809180008160809380008091B100846063
:1002F0008093B1008091B00081608093B0008091C4
:100300007A00846080937A0080917A008260809382
:100310007A0080917A00816080937A0080917A00DF
:10032000806880937A001092C10061E08DE00E94A5
:10033000D70061E08CE00E94D70061E08BE00E9472
:10034000D70062E082E00E94D70090EB492E90E057
:10035000592E2CE9622E20E0722E08E810E030E0E1
:10036000E32E30E0F32EC1E0D0E043E0C42ED12CE8
:1003700054E0A52EB12C62E0862E912CF2018491DE
:10038000F3013490F8012490211020C080910401E1
:1003900090910501019721F410920501109204013A
:1003A00080910001909101018230910509F461C0B2
:1003B00054F5019709F445C0D0930301C09302019D
:1003C000E114F104D9F20E940000D8CF81110E94FB
:1003D0008000E22DF0E0EE0FFF1FE859FF4FA591DE
:1003E000B4918C91382291F2809104019091050191
:1003F000892BB1F6D0930501C0930401109203013B
:1004000010920201CDCF8330910509F44AC00497C0
:1004100099F660E08DE00E94A90060E08CE00E9407
:10042000A90061E08BE00E94A900809102019091F7
:100430000301892B09F0C0CFD0930101C0930001C3
:10044000BBCF61E08DE00E94A90061E08CE00E94DA
:10045000A90061E08BE00E94A900809102019091C7
:100460000301892B09F0A8CF90920101809200012D
:10047000A3CF61E08DE00E94A90060E08CE00E94C3
:10048000A90060E08BE00E94A90080910201909198
:100490000301892B09F090CFD0920101C092000195
:1004A0008BCF60E08DE00E94A90061E08CE00E94AB
:1004B000A90060E08BE00E94A90080910201909168
:1004C0000301892B09F078CFB0920101A0920001BD
:0C04D00073CFF894FFCF01000100010081
:107E0000112484B714BE81FFF0D085E080938100F7
:107E100082E08093C00088E18093C10086E0809377
:107E2000C20080E18093C4008EE0C9D0259A86E02C
:107E300020E33CEF91E0309385002093840096BBD3
:107E4000B09BFECF1D9AA8958150A9F7CC24DD24C4
:107E500088248394B5E0AB2EA1E19A2EF3E0BF2EE7
:107E6000A2D0813461F49FD0082FAFD0023811F036
:107E7000013811F484E001C083E08DD089C08234E0
:107E800011F484E103C0853419F485E0A6D080C0E4
:107E9000853579F488D0E82EFF2485D0082F10E0AE
:107EA000102F00270E291F29000F111F8ED06801E7
:107EB0006FC0863521F484E090D080E0DECF843638
:107EC00009F040C070D06FD0082F6DD080E0C81688
:107ED00080E7D80618F4F601B7BEE895C0E0D1E017
:107EE00062D089930C17E1F7F0E0CF16F0E7DF06D8
:107EF00018F0F601B7BEE89568D007B600FCFDCFD4
:107F0000A601A0E0B1E02C9130E011968C91119780
:107F100090E0982F8827822B932B1296FA010C0160
:107F200087BEE89511244E5F5F4FF1E0A038BF0790
:107F300051F7F601A7BEE89507B600FCFDCF97BE46
:107F4000E89526C08437B1F42ED02DD0F82E2BD052
:107F50003CD0F601EF2C8F010F5F1F4F84911BD097
:107F6000EA94F801C1F70894C11CD11CFA94CF0C13
:107F7000D11C0EC0853739F428D08EE10CD085E9AC
:107F80000AD08FE07ACF813511F488E018D01DD067
:107F900080E101D065CF982F8091C00085FFFCCF94
:107FA0009093C60008958091C00087FFFCCF809118
:107FB000C00084FD01C0A8958091C6000895E0E648
:107FC000F0E098E1908380830895EDDF803219F02E
:107FD00088E0F5DFFFCF84E1DECF1F93182FE3DFCA
:107FE0001150E9F7F2DF1F91089580E0E8DFEE27F6
:047FF000FF270994CA
:027FFE00040479
:00000001FF
