:100000000C9462000C948A000C948A000C948A0070
:100010000C948A000C948A000C948A000C948A0038
:100020000C948A000C948A000C948A000C948A0028
:100030000C948A000C948A000C948A000C948A0018
:100040000C944A020C948A000C94BA020C94940208
:100050000C948A000C948A000C948A000C948A00F8
:100060000C948A000C948A000000000023002600F3
:10007000290000000000240027002A0000000000E2
:10008000250028002B0004040404040404040202D4
:100090000202020203030303030301020408102007
:1000A0004080010204081020010204081020000012
:1000B0000008000201000003040700000000000027
:1000C0000000BA0411241FBECFEFD8E0DEBFCDBFC1
:1000D00011E0A0E0B1E0EEEDF9E002C005900D9274
:1000E000A435B107D9F722E0A4E5B1E001C01D9223
:1000F000A630B207E1F710E0C2E6D0E004C02197D5
:10010000FE010E94E704C136D107C9F70E94EC0244
:100110000C94ED040C940000FC01538D448D252FAC
:1001200030E0842F90E0821B930B541710F0CF9691
:10013000089501970895FC01918D828D981761F0C3
:10014000A28DAE0FBF2FB11D5D968C91928D9F5FDA
:100150009F73928F90E008958FEF9FEF0895FC01B9
:10016000918D828D981731F0828DE80FF11D858D6C
:1001700090E008958FEF9FEF0895FC01918D228DFF
:10018000892F90E0805C9F4F821B91098F73992784
:100190000895FC01A48DA80FB92FB11DA35ABF4F1C
:1001A0002C91848D90E001968F739927848FA68976
:1001B000B7892C93A089B1898C91837080648C93CA
:1001C000938D848D981306C00288F389E02D808179
:1001D0008F7D80830895EF92FF920F931F93CF93AB
:1001E000DF93EC0181E0888F9B8D8C8D98131AC072
:1001F000E889F989808185FF15C09FB7F894EE8959
:10020000FF896083E889F9898081837080648083B5
:100210009FBF81E090E0DF91CF911F910F91FF9000
:10022000EF900895F62E0B8D10E00F5F1F4F0F73A8
:100230001127E02E8C8D8E110CC00FB607FCFACF63
:10024000E889F989808185FFF5CFCE010E94C90038
:10025000F1CFEB8DEC0FFD2FF11DE35AFF4FF08234
:100260009FB7F8940B8FEA89FB8980818062CFCF9A
:10027000CF93DF93EC01888D8823B9F0AA89BB89DD
:10028000E889F9898C9185FD03C0808186FD0DC0C8
:100290000FB607FCF7CF8C9185FFF2CF808185FFE9
:1002A000EDCFCE010E94C900E9CFDF91CF91089533
:1002B00089E691E00E94BD0021E0892B09F420E04D
:1002C000822F089580E090E0892B29F00E94580148
:1002D00081110C9400000895833081F028F481305E
:1002E00099F08230A9F008958730A9F08830C9F0DC
:1002F0008430B1F4809180008F7D03C080918000B4
:100300008F7780938000089584B58F7784BD08959A
:1003100084B58F7DFBCF8091B0008F778093B00044
:1003200008958091B0008F7DF9CF1F93CF93DF9315
:10033000282F30E0F901E255FF4F8491F901E6568C
:10034000FF4FD491F901EA57FF4FC491CC23A9F094
:10035000162F81110E946C01EC2FF0E0EE0FFF1FB1
:10036000E458FF4FA591B4918FB7F894EC91111117
:1003700008C0D095DE23DC938FBFDF91CF911F9112
:100380000895DE2BF8CFCF93DF9390E0FC01E65683
:10039000FF4F24918A579F4FFC0184918823D1F00D
:1003A00090E0880F991FFC01EE58FF4FA591B49182
:1003B000FC01E458FF4FC591D491623071F49FB7AE
:1003C000F8943C91822F809583238C93E8812E2B87
:1003D00028839FBFDF91CF9108958FB7F894EC9158
:1003E0002E2B2C938FBFF6CF2FB7F8946091650119
:1003F0007091660180916701909168012FBF089507
:10040000AF92BF92CF92DF92EF92FF920F931F9322
:10041000CF93DF936C017B018B01040F151FEB0160
:100420005E01AE18BF08C017D10759F06991D60117
:10043000ED91FC910190F081E02DC6010995892B89
:1004400079F7C501DF91CF911F910F91FF90EF9048
:10045000DF90CF90BF90AF900895CF93DF93FC01D2
:1004600001900020E9F73197AF01481B590BBC01FF
:1004700089E691E00E940002EC0142E050E068E170
:1004800071E089E691E00E9400028C0F9D1FDF91D0
:10049000CF9108951F920F920FB60F9211242F93B0
:1004A0003F938F939F93AF93BF93809165019091FA
:1004B0006601A0916701B09168013091640123E069
:1004C000230F2D3758F50196A11DB11D209364010E
:1004D0008093650190936601A0936701B0936801D2
:1004E0008091600190916101A0916201B0916301DE
:1004F0000196A11DB11D8093600190936101A093AD
:100500006201B0936301BF91AF919F918F913F9131
:100510002F910F900FBE0F901F90189526E8230F74
:100520000296A11DB11DD2CF1F920F920FB60F924E
:1005300011242F933F934F935F936F937F938F93E8
:100540009F93AF93BF93EF93FF9389E691E00E944F
:10055000C900FF91EF91BF91AF919F918F917F91D2
:100560006F915F914F913F912F910F900FBE0F9020
:100570001F9018951F920F920FB60F9211242F9370
:100580008F939F93EF93FF93E0917901F0917A011C
:100590008081E0917F01F091800182FD1BC09081FC
:1005A000809182018F5F8F7320918301821741F0C8
:1005B000E0918201F0E0E759FE4F958F8093820130
:1005C000FF91EF919F918F912F910F900FBE0F9000
:1005D0001F9018958081F4CF789484B5826084BD93
:1005E00084B5816084BD85B5826085BD85B5816037
:1005F00085BD80916E00816080936E0010928100B5
:10060000809181008260809381008091810081606F
:100610008093810080918000816080938000809130
:10062000B10084608093B1008091B00081608093BC
:10063000B00080917A00846080937A0080917A0083
:10064000826080937A0080917A00816080937A0042
:1006500080917A00806880937A001092C10061E0F6
:100660008DE00E94C30161E08CE00E94C30161E063
:100670008BE00E94C30162E082E00E94C30120EB94
:10068000222E20E0322E3CE9432E30E0532E48E863
:10069000642E40E0742E01E010E053E0E52EF12CD2
:1006A00062E0C62ED12C74E0A72EB12C90E0892EEA
:1006B00090E0992EF1018491F201C491F301D4915B
:1006C000DD2309F472C081110E946C01ED2FF0E06E
:1006D000EE0FFF1FE859FF4FA591B4918C91C823ED
:1006E00091E080E009F490E0C92FD82F80915E015D
:1006F00090915F018C179D0751F00E94F401609367
:100700005A0170935B0180935C0190935D010E949C
:10071000F40120915A0130915B0140915C015091AC
:100720005D01621B730B840B950B633371058105AF
:10073000910558F080915801909159018C179D07AF
:1007400021F0D0935901C0935801D0935F01C09319
:100750005E018091580190915901009749F580916F
:10076000040190910501019721F410920501109266
:10077000040180910001909101018230910509F4FA
:1007800099C044F5019709F457C0109303010093F1
:1007900002018114910409F48DCF0E94580188232D
:1007A00009F484CF0E94000081CFD0E0C0E09ECF4A
:1007B00081309105F1F62091040130910501232B40
:1007C000C1F69093050180930401109203011092E9
:1007D0000201CFCF8330910509F4A0C00497A9F698
:1007E00060E08DE00E94950160E08CE00E94950140
:1007F00061E08BE00E94950185E491E00E942D026A
:100800008091020190910301892B09F482C00E941A
:10081000F4012091540130915501409156015091BD
:100820005701621B730B840B950B6938734181056B
:10083000910508F4AACF54C061E08DE00E949501B3
:1008400061E08CE00E94950161E08BE00E949501DF
:100850008BE191E00E942D028091020190910301B1
:10086000892B29F4D0920101C092000118C00E9486
:10087000F40120915401309155014091560150915D
:100880005701621B730B840B950B6938734181050B
:10089000910508F47ACFB0920101A09200010E9464
:1008A000F401609354017093550180935601909325
:1008B00057016BCF61E08DE00E94950160E08CE014
:1008C0000E94950160E08BE00E94950189E291E031
:1008D0000E942D028091020190910301892B29F43D
:1008E000F0920101E0920001DACF0E94F401209120
:1008F0005401309155014091560150915701621BAE
:10090000730B840B950B693873418105910508F4CD
:100910003CCF1093010100930001C1CF60E08DE056
:100920000E94950161E08CE00E94950160E08BE0FF
:100930000E94950187E391E00E942D0280910201BF
:1009400090910301892B09F4A6CF0E94F401209114
:100950005401309155014091560150915701621B4D
:10096000730B840B950B693873418105910508F46D
:100970000CCF78CFE9E6F1E01382128288EE93E0A3
:10098000A0E0B0E084839583A683B7838AE091E0FA
:100990009183808385EC90E09587848784EC90E058
:1009A0009787868780EC90E0918B808B81EC90E03C
:1009B000938B828B82EC90E0958B848B86EC90E01D
:1009C000978B868B118E128E138E148E0895EE0FD8
:0E09D000FF1F0590F491E02D0994F894FFCFDD
:1009DE0001000100010000000000EB0000028C008D
:1009EE003801BD009B00AF000D0A004D6173756BA1
:1009FE002073746174652031004D6173756B2073C3
:100A0E00746174652032004D6173756B207374616F
:100A1E0074652033004D6173756B2073746174655A
:040A2E002034000070
:00000001FF
